:020000040800F2
:10F800000050002041FA000891FA000891FA00081F
:10F8100091FA000891FA000891FA0008000000002F
:10F8200000000000000000000000000091FA000845
:10F8300091FA00080000000091FA000891FA00080F
:10F8400091FA000891FA000891FA000891FA00086C
:10F8500091FA000891FA000891FA000891FA00085C
:10F8600091FA000891FA000891FA000891FA00084C
:10F8700091FA000891FA000891FA000891FA00083C
:10F8800091FA000891FA000891FA000891FA00082C
:10F8900091FA000891FA000891FA000891FA00081C
:10F8A00091FA000891FA000891FA000891FA00080C
:10F8B00091FA000891FA000891FA000891FA0008FC
:10F8C00091FA000891FA000891FA000891FA0008EC
:10F8D00091FA000891FA000891FA000891FA0008DC
:10F8E00091FA000891FA00080000000091FA00085F
:10F8F00091FA000891FA000891FA000891FA0008BC
:10F9000091FA000891FA000891FA000891FA0008AB
:10F9100091FA000891FA000891FA000891FA00089B
:10F9200091FA000891FA000891FA000891FA00088B
:10F9300010B5054C237833B9044B13B10448AFF329
:10F9400000800123237010BD000000200000000093
:10F95000DCFA000808B5034B1BB103490348AFF3B9
:10F96000008008BD0000000004000020DCFA000850
:10F9700080B487B000AFF860B9601346FB7100BF78
:10F98000234BDB6803F00103012BF9D0204B1B69EB
:10F99000DB0903F00103012B05D11D4B1D4A5A6001
:10F9A0001B4B1D4A5A600023FB7526E0184B1B6950
:10F9B000174A43F001031361FB7D5B00BA681A44E8
:10F9C000FB68128892B21A80FB680233FB6000BFAA
:10F9D0000F4BDB6803F00103012BF9D00C4BDB6804
:10F9E0000B4A43F02003D360094B1B69084A23F0FC
:10F9F00001031361FB7D0133FB75FA7DFB799A42AC
:10FA0000D4D300BF00BF1C37BD4680BC704700BFC9
:10FA10000020024023016745AB89EFCD80B582B05D
:10FA200000AF0123FB80BB1D012219460348FFF7ED
:10FA30009FFF002318460837BD4680BDF0FF000831
:10FA40000D488546AFF300800C480D490D4A002350
:10FA500002E0D458C4500433C4188C42F9D30A4A83
:10FA60000A4C002301E013600432A242FBD300F0F1
:10FA700011F8FFF7D3FFFEE7005000200000002040
:10FA800000000020FCFA0008000000201C000020FC
:10FA9000FEE7000070B500260C4D0D4C641BA41051
:10FAA000A64209D100F01AF800260A4D0A4C641B40
:10FAB000A410A64205D170BD55F8043B9847013605
:10FAC000EEE755F8043B98470136F2E7F4FA0008F0
:10FAD000F4FA0008F4FA0008F8FA0008F8B500BFD4
:10FAE000F8BC08BC9E467047F8B500BFF8BC08BC1F
:04FAF0009E46704777
:04FAF40055F90008B8
:04FAF80031F90008D8
:040000050800FA41B4
:00000001FF
